:100000000C9462000C948A000C948A000C948A0070
:100010000C948A000C948A000C948A000C948A0038
:100020000C948A000C948A000C948A000C948A0028
:100030000C948A000C948A000C948A000C948A0018
:100040000C94EF020C948A000C945F030C94390317
:100050000C948A000C948A000C948A000C948A00F8
:100060000C948A000C948A000000000024002700F1
:100070002A0000000000250028002B0000000000DE
:1000800023002600290004040404040404040202DA
:100090000202020203030303030301020408102007
:1000A0004080010204081020010204081020000012
:1000B0000008000201000003040700000000000027
:1000C0000000910311241FBECFEFD8E0DEBFCDBFEB
:1000D00011E0A0E0B1E0ECE7FAE002C005900D927B
:1000E000A231B107D9F721E0A2E1B1E001C01D9230
:1000F000A53CB207E1F710E0C2E6D0E004C02197CA
:10010000FE010E943605C136D107C9F70E94D90306
:100110000C943C050C940000FC01538D448D252F5C
:1001200030E0842F90E0821B930B541710F0CF9691
:10013000089501970895FC01918D828D981761F0C3
:10014000A28DAE0FBF2FB11D5D968C91928D9F5FDA
:100150009F73928F90E008958FEF9FEF0895FC01B9
:10016000918D828D981731F0828DE80FF11D858D6C
:1001700090E008958FEF9FEF0895FC01918D228DFF
:10018000892F90E0805C9F4F821B91098F73992784
:100190000895FC01A48DA80FB92FB11DA35ABF4F1C
:1001A0002C91848D90E001968F739927848FA68976
:1001B000B7892C93A089B1898C91837080648C93CA
:1001C000938D848D981306C00288F389E02D808179
:1001D0008F7D80830895EF92FF920F931F93CF93AB
:1001E000DF93EC0181E0888F9B8D8C8D98131AC072
:1001F000E889F989808185FF15C09FB7F894EE8959
:10020000FF896083E889F9898081837080648083B5
:100210009FBF81E090E0DF91CF911F910F91FF9000
:10022000EF900895F62E0B8D10E00F5F1F4F0F73A8
:100230001127E02E8C8D8E110CC00FB607FCFACF63
:10024000E889F989808185FFF5CFCE010E94C90038
:10025000F1CFEB8DEC0FFD2FF11DE35AFF4FF08234
:100260009FB7F8940B8FEA89FB8980818062CFCF9A
:10027000CF93DF93EC01888D8823B9F0AA89BB89DD
:10028000E889F9898C9185FD03C0808186FD0DC0C8
:100290000FB607FCF7CF8C9185FFF2CF808185FFE9
:1002A000EDCFCE010E94C900E9CFDF91CF91089533
:1002B0008DE191E00E94BD0021E0892B09F420E04E
:1002C000822F089580E090E0892B29F00E94580148
:1002D00081110C9400000895833081F028F481305E
:1002E00099F08230A9F008958730A9F08830C9F0DC
:1002F0008430B1F4809180008F7D03C080918000B4
:100300008F7780938000089584B58F7784BD08959A
:1003100084B58F7DFBCF8091B0008F778093B00044
:1003200008958091B0008F7DF9CFCF93DF93282F70
:1003300030E0F901E255FF4F8491F901E656FF4F95
:10034000D491F901EA57FF4FC491CC23A1F0811158
:100350000E946C01EC2FF0E0EE0FFF1FE458FF4FFE
:10036000A591B491EC91ED2381E090E009F480E057
:10037000DF91CF91089580E090E0FACF1F93CF9363
:10038000DF93282F30E0F901E255FF4F8491F90106
:10039000E656FF4FD491F901EA57FF4FC491CC23A1
:1003A000A9F0162F81110E946C01EC2FF0E0EE0FE6
:1003B000FF1FEE58FF4FA591B4918FB7F894EC91C1
:1003C000111108C0D095DE23DC938FBFDF91CF9150
:1003D0001F910895DE2BF8CFCF93DF9390E0FC01BF
:1003E000E656FF4F24918A579F4FFC018491882342
:1003F000D1F090E0880F991FFC01E859FF4FA591BB
:10040000B491FC01EE58FF4FC591D49161110EC01B
:100410009FB7F8948C91E22FE0958E238C932881DE
:10042000E223E8839FBFDF91CF9108958FB7F894BF
:10043000EC91E22BEC938FBFF6CF3FB7F89480910D
:10044000190190911A01A0911B01B0911C0126B5D0
:10045000A89B05C02F3F19F00196A11DB11D3FBFFC
:10046000BA2FA92F982F8827BC01CD01620F711DCB
:10047000811D911D42E0660F771F881F991F4A95C5
:10048000D1F708958F929F92AF92BF92CF92DF9251
:10049000EF92FF924B015C010E941D026B017C01F7
:1004A0000E941D026C197D098E099F09683E7340E8
:1004B00081059105A8F321E0821A9108A108B108ED
:1004C00088EEC80E83E0D81EE11CF11C8114910453
:1004D000A104B10429F7FF90EF90DF90CF90BF9077
:1004E000AF909F908F900895AF92BF92CF92DF927E
:1004F000EF92FF920F931F93CF93DF936C017B01D9
:100500008B01040F151FEB015E01AE18BF08C01769
:10051000D10759F06991D601ED91FC910190F081DC
:10052000E02DC6010995892B79F7C501DF91CF919F
:100530001F910F91FF90EF90DF90CF90BF90AF9001
:1005400008958F929F92AF92BF920F931F93CF9374
:10055000DF93CDB7DEB7A1970FB6F894DEBF0FBE1D
:10056000CDBF19A2423008F44AE08E010F5D1F4F43
:10057000842E912CB12CA12CA50194010E9414056C
:10058000E62FB901CA01EA3044F5E05DD801EE93E7
:100590008D01232B242B252B79F790E080E01097F9
:1005A00069F0FD0101900020E9F73197AF014A1B86
:1005B0005B0BBD018DE191E00E947402A1960FB624
:1005C000F894DEBF0FBECDBFDF91CF911F910F9189
:1005D000BF90AF909F908F900895E95CD7CF1F9206
:1005E0000F920FB60F9211242F933F938F939F93E7
:1005F000AF93BF938091150190911601A0911701BF
:10060000B09118013091140123E0230F2D3758F5D4
:100610000196A11DB11D20931401809315019093A3
:100620001601A0931701B0931801809119019091C0
:100630001A01A0911B01B0911C010196A11DB11DD1
:100640008093190190931A01A0931B01B0931C0190
:10065000BF91AF919F918F913F912F910F900FBEBE
:100660000F901F90189526E8230F0296A11DB11D2B
:10067000D2CF1F920F920FB60F9211242F933F9358
:100680004F935F936F937F938F939F93AF93BF939A
:10069000EF93FF938DE191E00E94C900FF91EF91EC
:1006A000BF91AF919F918F917F916F915F914F918A
:1006B0003F912F910F900FBE0F901F9018951F9292
:1006C0000F920FB60F9211242F938F939F93EF9356
:1006D000FF93E0912D01F0912E018081E091330193
:1006E000F091340182FD1BC09081809136018F5FB3
:1006F0008F7320913701821741F0E0913601F0E0CD
:10070000E35EFE4F958F80933601FF91EF919F91AD
:100710008F912F910F900FBE0F901F901895808191
:10072000F4CFCF93DF93EDE1F1E01382128288EEF4
:1007300093E0A0E0B0E084839583A683B78384E050
:1007400091E09183808385EC90E09587848784ECA9
:1007500090E09787868780EC90E0918B808B81EC8E
:1007600090E0938B828B82EC90E0958B848B86EC6F
:1007700090E0978B868B118E128E138E148ECAEB9F
:10078000D1E083E0888384E089831A8261E083E09A
:100790000E94EC0160E089810E94EC0180E29EE40D
:1007A000A0E0B0E08F839887A987BA87DF91CF91C7
:1007B0000895789484B5826084BD84B5816084BDD9
:1007C00085B5826085BD85B5816085BD80916E00EF
:1007D000816080936E001092810080918100826020
:1007E000809381008091810081608093810080915D
:1007F00080008160809380008091B100846080934C
:10080000B1008091B00081608093B00080917A0047
:10081000846080937A0080917A00826080937A006D
:1008200080917A00816080937A0080917A0080685C
:1008300080937A001092C10061E082E00E94EC0196
:10084000C3E0D0E003E210E088E3E82EF12C90E072
:10085000C92E90E0D92E8091BC01882329F061E057
:100860008091BA010E94EC0160E08091BA010E947F
:10087000BE01CE010197F1F761E08091BA010E94BB
:10088000BE01C8010197F1F760E08091BA010E94B2
:10089000BE018091BC01882329F060E08091BA01FB
:1008A0000E94EC010E941D026093BD017093BE0185
:1008B0008093BF019093C0018091BB010E9495017C
:1008C000892BD9F40E941D028090BD019090BE0139
:1008D000A090BF01B090C001681979098A099B09ED
:1008E0008090C1019090C201A090C301B090C4015A
:1008F00086169706A806B906F8F60E941D026093B0
:10090000BD017093BE018093BF019093C00180919F
:10091000BB010E949501892BD9F00E941D02809095
:10092000BD019090BE01A090BF01B090C0016819B8
:1009300079098A099B098090C1019090C201A09019
:10094000C301B090C40186169706A806B906F8F64A
:100950000E941D022091BD013091BE01CB01821B7E
:10096000930BB7010E94000570931301609312016D
:1009700090E080E04AE00E94A102809112019091F3
:1009800013018B30910534F561E082E00E94BE01D5
:1009900068EC70E080E090E00E94420260E082E05B
:1009A0000E94BE0168EC70E080E090E00E9442028C
:1009B00064E670E080E090E00E944202C114D1043D
:1009C00009F449CF0E945801882309F444CF0E94BA
:1009D000000041CF0B97439758F761E082E00E94F7
:1009E000BE0160E971E080E090E00E94420260E0B8
:1009F00082E00E94BE0160E971E080E090E0D6CF25
:100A0000AA1BBB1B51E107C0AA1FBB1FA617B70734
:100A100010F0A61BB70B881F991F5A95A9F7809550
:100A20009095BC01CD010895A1E21A2EAA1BBB1B13
:100A3000FD010DC0AA1FBB1FEE1FFF1FA217B307AA
:100A4000E407F50720F0A21BB30BE40BF50B661FC0
:100A5000771F881F991F1A9469F760957095809584
:100A600090959B01AC01BD01CF010895EE0FFF1FD2
:0C0A70000590F491E02D0994F894FFCF5C
:100A7C0000000000EB0074028C003801BD009B00EC
:020A8C00AF00B9
:00000001FF
