:020000040000FA
:100000000C9462000C948A000C948A000C948A0070
:100010000C948A000C948A000C948A000C948A0038
:100020000C948A000C948A000C948A000C948A0028
:100030000C948A000C948A000C948A000C948A0018
:100040000C94BD020C948A000C942D030C940703AD
:100050000C948A000C948A000C948A000C948A00F8
:100060000C948A000C948A000000000024002700F1
:100070002A0000000000250028002B0000000000DE
:1000800023002600290004040404040404040202DA
:100090000202020203030303030301020408102007
:1000A0004080010204081020010204081020000012
:1000B0000008000201000003040700000000000027
:1000C00000005F0311241FBECFEFD8E0DEBFCDBF1D
:1000D00011E0A0E0B1E0EAE2FBE002C005900D9281
:1000E000A431B107D9F721E0A4E1B1E001C01D922C
:1000F000AF3CB207E1F710E0C2E6D0E004C02197C0
:10010000FE010E948D05C136D107C9F70E94A703E1
:100110000C9493050C940000833081F028F4813016
:1001200099F08230A9F008958730A9F08830C9F09D
:100130008430B1F4809180008F7D03C08091800075
:100140008F7780938000089584B58F7784BD08955C
:1001500084B58F7DFBCF8091B0008F778093B00006
:1001600008958091B0008F7DF9CFCF93DF93282F32
:1001700030E0F901E255FF4F8491F901E656FF4F57
:10018000D491F901EA57FF4FC491CC23A1F081111A
:100190000E948C00EC2FF0E0EE0FFF1FE458FF4FA1
:1001A000A591B491EC91ED2381E090E009F480E019
:1001B000DF91CF91089580E090E0FACF1F93CF9325
:1001C000DF93282F30E0F901E255FF4F8491F901C8
:1001D000E656FF4FD491F901EA57FF4FC491CC2363
:1001E000A9F0162F81110E948C00EC2FF0E0EE0F89
:1001F000FF1FEE58FF4FA591B4918FB7F894EC9183
:10020000111108C0D095DE23DC938FBFDF91CF9111
:100210001F910895DE2BF8CFCF93DF9390E0FC0180
:10022000E656FF4F24918A579F4FFC018491882303
:10023000D1F090E0880F991FFC01E859FF4FA5917C
:10024000B491FC01EE58FF4FC591D49161110EC0DD
:100250009FB7F8948C91E22FE0958E238C932881A0
:10026000E223E8839FBFDF91CF9108958FB7F89481
:10027000EC91E22BEC938FBFF6CF3FB7F8948091CF
:10028000230190912401A0912501B091260126B56A
:10029000A89B05C02F3F19F00196A11DB11D3FBFBE
:1002A000BA2FA92F982F8827BC01CD01620F711D8D
:1002B000811D911D42E0660F771F881F991F4A9587
:1002C000D1F70895AF92BF92CF92DF92EF92FF9253
:1002D0000F931F93CF93DF936C017B018B01040F6E
:1002E000151FEB015E01AE18BF08C017D10759F00A
:1002F0006991D601ED91FC910190F081E02DC6014C
:100300000995892B79F7C501DF91CF911F910F9145
:10031000FF90EF90DF90CF90BF90AF900895FC01D9
:10032000538D448D252F30E0842F90E0821B930B5A
:10033000541710F0CF96089501970895FC01918D00
:10034000828D981761F0A28DAE0FBF2FB11D5D9603
:100350008C91928D9F5F9F73928F90E008958FEFA5
:100360009FEF0895FC01918D828D981731F0828D59
:10037000E80FF11D858D90E008958FEF9FEF0895B0
:10038000FC01918D228D892F90E0805C9F4F821B14
:1003900091098F739927089587E291E00E94C00127
:1003A00021E0892B09F420E0822F089580E090E07D
:1003B000892B29F00E94CC0181110C940000089532
:1003C000FC01A48DA80FB92FB11DA35ABF4F2C91CA
:1003D000848D90E001968F739927848FA689B789C1
:1003E0002C93A089B1898C91837080648C93938DB8
:1003F000848D981306C00288F389E02D80818F7D5B
:1004000080830895EF92FF920F931F93CF93DF9312
:10041000EC0181E0888F9B8D8C8D98131AC0E88940
:10042000F989808185FF15C09FB7F894EE89FF890F
:100430006083E889F98980818370806480839FBFAD
:1004400081E090E0DF91CF911F910F91FF90EF90AD
:100450000895F62E0B8D10E00F5F1F4F0F731127BD
:10046000E02E8C8D8E110CC00FB607FCFACFE889F8
:10047000F989808185FFF5CFCE010E94E001F1CF9F
:10048000EB8DEC0FFD2FF11DE35AFF4FF0829FB76C
:10049000F8940B8FEA89FB8980818062CFCFCF935C
:1004A000DF93EC01888D8823B9F0AA89BB89E8899C
:1004B000F9898C9185FD03C0808186FD0DC00FB642
:1004C00007FCF7CF8C9185FFF2CF808185FFEDCFC0
:1004D000CE010E94E001E9CFDF91CF9108958F9284
:1004E0009F92AF92BF920F931F93CF93DF93CDB79D
:1004F000DEB7A1970FB6F894DEBF0FBECDBF19A22D
:10050000423008F44AE08E010F5D1F4F842E912C7B
:10051000B12CA12CA50194010E946B05E62FB90115
:10052000CA01EA3044F5E05DD801EE938D01232B3A
:10053000242B252B79F790E080E0109769F0FD01DE
:1005400001900020E9F73197AF014A1B5B0BBD0119
:1005500087E291E00E946201A1960FB6F894DEBF97
:100560000FBECDBFDF91CF911F910F91BF90AF9084
:100570009F908F900895E95CD7CF1F920F920FB68E
:100580000F9211242F933F938F939F93AF93BF9319
:1005900080911F0190912001A0912101B091220131
:1005A00030911E0123E0230F2D3758F50196A11D30
:1005B000B11D20931E0180931F0190932001A093F1
:1005C0002101B09322018091230190912401A091F7
:1005D0002501B09126010196A11DB11D8093230133
:1005E00090932401A0932501B0932601BF91AF9170
:1005F0009F918F913F912F910F900FBE0F901F9061
:10060000189526E8230F0296A11DB11DD2CF1F9287
:100610000F920FB60F9211242F933F934F935F9336
:100620006F937F938F939F93AF93BF93EF93FF93BA
:1006300087E291E00E94E001FF91EF91BF91AF91BD
:100640009F918F917F916F915F914F913F912F91EA
:100650000F900FBE0F901F9018951F920F920FB61C
:100660000F9211242F938F939F93EF93FF93E09119
:100670003701F09138018081E0913D01F0913E0118
:1006800082FD1BC09081809140018F5F8F7320910C
:100690004101821741F0E0914001F0E0E95DFE4F39
:1006A000958F80934001FF91EF919F918F912F91B2
:1006B0000F900FBE0F901F9018958081F4CFCF93AD
:1006C000DF93E7E2F1E01382128288EE93E0A0E08C
:1006D000B0E084839583A683B78385E091E091831E
:1006E000808385EC90E09587848784EC90E0978701
:1006F000868780EC90E0918B808B81EC90E0938BEF
:10070000828B82EC90E0958B848B86EC90E0978BCB
:10071000868B118E128E138E148EC4ECD1E08CE079
:1007200088838BE089831A8261E08CE00E940C014F
:1007300060E089810E940C0180E29EE4A0E0B0E0CC
:100740008F839887A987BA87DF91CF91089578948E
:1007500084B5826084BD84B5816084BD85B58260C6
:1007600085BD85B5816085BD80916E008160809377
:100770006E001092810080918100826080938100E0
:1007800080918100816080938100809180008160F0
:10079000809380008091B10084608093B10080914B
:1007A000B00081608093B00080917A008460809373
:1007B0007A0080917A00826080937A0080917A003A
:1007C000816080937A0080917A00806880937A00BB
:1007D0001092C100E0913701F091380182E08083EE
:1007E000E0913301F09134011082E0913501F091F4
:1007F00036018FEC808310923F01E0913B01F09134
:100800003C0186E08083E0913901F0913A018081DA
:1008100080618083E0913901F0913A0180818860A4
:100820008083E0913901F0913A0180818068808372
:10083000E0913901F0913A0180818F7D808361E000
:1008400082E00E940C0161E083E00E940C0161E003
:1008500083E00E940C0193E0892E912CC3E2D0E04A
:1008600008E310E020E0A22E20E0B22E8091C60125
:10087000882329F061E08091C4010E940C0160E0AE
:100880008091C4010E94DE00C4010197F1F761E08C
:100890008091C4010E94DE00CE010197F1F760E073
:1008A0008091C4010E94DE008091C601882329F056
:1008B00060E08091C4010E940C010E943D016093A0
:1008C000C7017093C8018093C9019093CA018091B8
:1008D000C5010E94B500892BD9F40E943D01C0904A
:1008E000C701D090C801E090C901F090CA016C190D
:1008F0007D098E099F09C090CB01D090CC01E0907A
:10090000CD01F090CE01C616D706E806F906F8F636
:100910000E943D016093C7017093C8018093C90193
:100920009093CA018091C5010E94B500892BD9F02E
:100930000E943D01C090C701D090C801E090C9015C
:10094000F090CA016C197D098E099F09C090CB01F6
:10095000D090CC01E090CD01F090CE01C616D70624
:10096000E806F906F8F60E943D012091C701309192
:10097000C801CB01821B930BB8010E9457057093ED
:100980001D0160931C0190E080E04AE00E946F022C
:100990008FB7F894C0901F01D0902001E090210102
:1009A000F09022018FBFC0921801D0921901E092FD
:1009B0001A01F0921B0180911C0190911D0185315B
:1009C0009105E4F161E084E00E94DE0060E083E0F4
:1009D0000E94DE0060E082E00E94DE000E943D0195
:1009E0002B013C0184E6C82ED12CE12CF12C0E9475
:1009F0003D016419750986099709683E73408105B0
:100A00009105A8F331E0C31AD108E108F10848EED6
:100A1000440E43E0541E611C711CC114D104E10456
:100A2000F10429F7A114B10409F420CF0E94CC01EC
:100A3000882309F41BCF0E94000018CF0B9760E0B9
:100A40000A9728F484E00E94DE0061E0C0CF84E0D1
:100A50000E94DE0060E083E00E94DE0080911401CD
:100A600090911501A0911601B0911701A70196016F
:100A7000281B390B4A0B5B0BDA01C901883C910535
:100A8000A105B10508F4AACFC0921401D0921501B6
:100A9000E0921601F0921701F09000016F2D82E0B4
:100AA0000E94DE0081E0F826F092000197CFAA1B99
:100AB000BB1B51E107C0AA1FBB1FA617B70710F049
:100AC000A61BB70B881F991F5A95A9F7809590957B
:100AD000BC01CD010895A1E21A2EAA1BBB1BFD018A
:100AE0000DC0AA1FBB1FEE1FFF1FA217B307E4070D
:100AF000F50720F0A21BB30BE40BF50B661F771F65
:100B0000881F991F1A9469F7609570958095909544
:100B10009B01AC01BD01CF010895EE0FFF1F0590B1
:100B2000F491E02D0994F894FFCF01000000000239
:0E0B30000262018F014F02C0019E01B201005E
:107E0000112484B714BE81FFF0D085E080938100F7
:107E100082E08093C00088E18093C10086E0809377
:107E2000C20080E18093C4008EE0C9D0259A86E02C
:107E300020E33CEF91E0309385002093840096BBD3
:107E4000B09BFECF1D9AA8958150A9F7CC24DD24C4
:107E500088248394B5E0AB2EA1E19A2EF3E0BF2EE7
:107E6000A2D0813461F49FD0082FAFD0023811F036
:107E7000013811F484E001C083E08DD089C08234E0
:107E800011F484E103C0853419F485E0A6D080C0E4
:107E9000853579F488D0E82EFF2485D0082F10E0AE
:107EA000102F00270E291F29000F111F8ED06801E7
:107EB0006FC0863521F484E090D080E0DECF843638
:107EC00009F040C070D06FD0082F6DD080E0C81688
:107ED00080E7D80618F4F601B7BEE895C0E0D1E017
:107EE00062D089930C17E1F7F0E0CF16F0E7DF06D8
:107EF00018F0F601B7BEE89568D007B600FCFDCFD4
:107F0000A601A0E0B1E02C9130E011968C91119780
:107F100090E0982F8827822B932B1296FA010C0160
:107F200087BEE89511244E5F5F4FF1E0A038BF0790
:107F300051F7F601A7BEE89507B600FCFDCF97BE46
:107F4000E89526C08437B1F42ED02DD0F82E2BD052
:107F50003CD0F601EF2C8F010F5F1F4F84911BD097
:107F6000EA94F801C1F70894C11CD11CFA94CF0C13
:107F7000D11C0EC0853739F428D08EE10CD085E9AC
:107F80000AD08FE07ACF813511F488E018D01DD067
:107F900080E101D065CF982F8091C00085FFFCCF94
:107FA0009093C60008958091C00087FFFCCF809118
:107FB000C00084FD01C0A8958091C6000895E0E648
:107FC000F0E098E1908380830895EDDF803219F02E
:107FD00088E0F5DFFFCF84E1DECF1F93182FE3DFCA
:107FE0001150E9F7F2DF1F91089580E0E8DFEE27F6
:047FF000FF270994CA
:027FFE00040479
:00000001FF
